{
	"data": {
		"bytecode": {
			"linkReferences": {},
			"object": "60806040523480156200001157600080fd5b5060405162001a6738038062001a678339818101604052810190620000379190620000e8565b806000806101000a81548173ffffffffffffffffffffffffffffffffffffffff021916908373ffffffffffffffffffffffffffffffffffffffff160217905550506200011a565b600080fd5b600073ffffffffffffffffffffffffffffffffffffffff82169050919050565b6000620000b08262000083565b9050919050565b620000c281620000a3565b8114620000ce57600080fd5b50565b600081519050620000e281620000b7565b92915050565b6000602082840312156200010157620001006200007e565b5b60006200011184828501620000d1565b91505092915050565b61193d806200012a6000396000f3fe608060405234801561001057600080fd5b50600436106100b45760003560e01c8063609526c211610071578063609526c2146101b557806379c6e5bb146101e557806379d129231461021557806389aea50914610233578063bc29ced914610251578063e0c8628914610281576100b4565b80630469c206146100b9578063199c32e2146100e957806319c2b4c3146101195780632b1a6ff4146101375780633add009e1461016757806346ae43ed14610185575b600080fd5b6100d360048036038101906100ce9190610afc565b61029f565b6040516100e09190610b5e565b60405180910390f35b61010360048036038101906100fe9190610cd2565b6103de565b6040516101109190610b5e565b60405180910390f35b610121610533565b60405161012e9190610b5e565b60405180910390f35b610151600480360381019061014c9190610d4a565b6105ca565b60405161015e9190610b5e565b60405180910390f35b61016f610620565b60405161017c9190610b5e565b60405180910390f35b61019f600480360381019061019a9190610d77565b61064c565b6040516101ac9190610e75565b60405180910390f35b6101cf60048036038101906101ca9190610d77565b61075d565b6040516101dc9190610b5e565b60405180910390f35b6101ff60048036038101906101fa9190610d4a565b6107f2565b60405161020c9190610b5e565b60405180910390f35b61021d610944565b60405161022a9190610f16565b60405180910390f35b61023b610968565b6040516102489190610b5e565b60405180910390f35b61026b60048036038101906102669190610d77565b61097b565b6040516102789190610b5e565b60405180910390f35b6102896109df565b6040516102969190610b5e565b60405180910390f35b6000828410156102e4576040517f08c379a00000000000000000000000000000000000000000000000000000000081526004016102db90610fda565b60405180910390fd5b600082101580156102f6575060648211155b610335576040517f08c379a000000000000000000000000000000000000000000000000000000000815260040161032c9061106c565b60405180910390fd5b600061034b848661034691906110bb565b610a78565b61035485610a78565b61035e91906110ef565b61036786610a78565b6103719190611160565b9050600085606461038291906112c4565b858761038e91906110bb565b85606461039b91906110bb565b6103a591906112c4565b86866103b191906112c4565b6103bb91906110ef565b836103c691906110ef565b6103d09190611160565b905080925050509392505050565b60008151835114610424576040517f08c379a000000000000000000000000000000000000000000000000000000000815260040161041b9061135b565b60405180910390fd5b6000805b835181101561046c578381815181106104445761044361137b565b5b60200260200101518261045791906113aa565b91508080610464906113de565b915050610428565b50600061047a60018361075d565b90506000805b85518110156104f15785818151811061049c5761049b61137b565b5b6020026020010151826104af91906113aa565b91508183116104de578681815181106104cb576104ca61137b565b5b602002602001015194505050505061052d565b80806104e9906113de565b915050610480565b506040517f08c379a000000000000000000000000000000000000000000000000000000000815260040161052490611472565b60405180910390fd5b92915050565b60008060009054906101000a900473ffffffffffffffffffffffffffffffffffffffff1673ffffffffffffffffffffffffffffffffffffffff1663fc2a88c36040518163ffffffff1660e01b8152600401602060405180830381865afa1580156105a1573d6000803e3d6000fd5b505050506040513d601f19601f820116820180604052508101906105c591906114a7565b905090565b600080821161060e576040517f08c379a000000000000000000000000000000000000000000000000000000000815260040161060590611520565b60405180910390fd5b61061960018361075d565b9050919050565b60008061062f6000600161075d565b905060008103610643576000915050610649565b60019150505b90565b606060008311801561065e5750600082115b801561066a5750828211155b6106a9576040517f08c379a00000000000000000000000000000000000000000000000000000000081526004016106a09061158c565b60405180910390fd5b60008267ffffffffffffffff8111156106c5576106c4610b8f565b5b6040519080825280602002602001820160405280156106f35781602001602082028036833780820191505090505b509050600084905060005b848110156107515761071160018361075d565b8382815181106107245761072361137b565b5b602002602001018181525050818061073b906115ac565b9250508080610749906113de565b9150506106fe565b50819250505092915050565b60008282116107a1576040517f08c379a000000000000000000000000000000000000000000000000000000000815260040161079890611621565b60405180910390fd5b60006107ab610533565b9050600084600186866107be91906110bb565b6107c891906113aa565b6107d1846107f2565b6107db9190611641565b6107e591906113aa565b9050809250505092915050565b60008060008060009054906101000a900473ffffffffffffffffffffffffffffffffffffffff1673ffffffffffffffffffffffffffffffffffffffff1663d8a4676f856040518263ffffffff1660e01b81526004016108519190610b5e565b600060405180830381865afa15801561086e573d6000803e3d6000fd5b505050506040513d6000823e3d601f19601f820116820180604052508101906108979190611741565b91509150816108db576040517f08c379a00000000000000000000000000000000000000000000000000000000081526004016108d29061180f565b60405180910390fd5b600081511161091f576040517f08c379a00000000000000000000000000000000000000000000000000000000081526004016109169061187b565b60405180910390fd5b806000815181106109335761093261137b565b5b602002602001015192505050919050565b60008054906101000a900473ffffffffffffffffffffffffffffffffffffffff1681565b60006109766000602461075d565b905090565b60008082036109bf576040517f08c379a00000000000000000000000000000000000000000000000000000000081526004016109b6906118e7565b60405180910390fd5b816064846109cd91906110ef565b6109d79190611160565b905092915050565b60008060009054906101000a900473ffffffffffffffffffffffffffffffffffffffff1673ffffffffffffffffffffffffffffffffffffffff1663e0c862896040518163ffffffff1660e01b81526004016020604051808303816000875af1158015610a4f573d6000803e3d6000fd5b505050506040513d601f19601f82011682018060405250810190610a7391906114a7565b905090565b6000808203610a8a5760019050610aad565b610a9f600183610a9a91906110bb565b610a78565b82610aaa91906110ef565b90505b919050565b6000604051905090565b600080fd5b600080fd5b6000819050919050565b610ad981610ac6565b8114610ae457600080fd5b50565b600081359050610af681610ad0565b92915050565b600080600060608486031215610b1557610b14610abc565b5b6000610b2386828701610ae7565b9350506020610b3486828701610ae7565b9250506040610b4586828701610ae7565b9150509250925092565b610b5881610ac6565b82525050565b6000602082019050610b736000830184610b4f565b92915050565b600080fd5b6000601f19601f8301169050919050565b7f4e487b7100000000000000000000000000000000000000000000000000000000600052604160045260246000fd5b610bc782610b7e565b810181811067ffffffffffffffff82111715610be657610be5610b8f565b5b80604052505050565b6000610bf9610ab2565b9050610c058282610bbe565b919050565b600067ffffffffffffffff821115610c2557610c24610b8f565b5b602082029050602081019050919050565b600080fd5b6000610c4e610c4984610c0a565b610bef565b90508083825260208201905060208402830185811115610c7157610c70610c36565b5b835b81811015610c9a5780610c868882610ae7565b845260208401935050602081019050610c73565b5050509392505050565b600082601f830112610cb957610cb8610b79565b5b8135610cc9848260208601610c3b565b91505092915050565b60008060408385031215610ce957610ce8610abc565b5b600083013567ffffffffffffffff811115610d0757610d06610ac1565b5b610d1385828601610ca4565b925050602083013567ffffffffffffffff811115610d3457610d33610ac1565b5b610d4085828601610ca4565b9150509250929050565b600060208284031215610d6057610d5f610abc565b5b6000610d6e84828501610ae7565b91505092915050565b60008060408385031215610d8e57610d8d610abc565b5b6000610d9c85828601610ae7565b9250506020610dad85828601610ae7565b9150509250929050565b600081519050919050565b600082825260208201905092915050565b6000819050602082019050919050565b610dec81610ac6565b82525050565b6000610dfe8383610de3565b60208301905092915050565b6000602082019050919050565b6000610e2282610db7565b610e2c8185610dc2565b9350610e3783610dd3565b8060005b83811015610e68578151610e4f8882610df2565b9750610e5a83610e0a565b925050600181019050610e3b565b5085935050505092915050565b60006020820190508181036000830152610e8f8184610e17565b905092915050565b600073ffffffffffffffffffffffffffffffffffffffff82169050919050565b6000819050919050565b6000610edc610ed7610ed284610e97565b610eb7565b610e97565b9050919050565b6000610eee82610ec1565b9050919050565b6000610f0082610ee3565b9050919050565b610f1081610ef5565b82525050565b6000602082019050610f2b6000830184610f07565b92915050565b600082825260208201905092915050565b7f4e756d626572206f6620747269616c73206d757374206265206772656174657260008201527f207468616e206f7220657175616c20746f206e756d626572206f66207375636360208201527f6573736573000000000000000000000000000000000000000000000000000000604082015250565b6000610fc4604583610f31565b9150610fcf82610f42565b606082019050919050565b60006020820190508181036000830152610ff381610fb7565b9050919050565b7f50726f626162696c697479206d757374206265206265747765656e203020616e60008201527f6420313030000000000000000000000000000000000000000000000000000000602082015250565b6000611056602583610f31565b915061106182610ffa565b604082019050919050565b6000602082019050818103600083015261108581611049565b9050919050565b7f4e487b7100000000000000000000000000000000000000000000000000000000600052601160045260246000fd5b60006110c682610ac6565b91506110d183610ac6565b92508282039050818111156110e9576110e861108c565b5b92915050565b60006110fa82610ac6565b915061110583610ac6565b925082820261111381610ac6565b9150828204841483151761112a5761112961108c565b5b5092915050565b7f4e487b7100000000000000000000000000000000000000000000000000000000600052601260045260246000fd5b600061116b82610ac6565b915061117683610ac6565b92508261118657611185611131565b5b828204905092915050565b60008160011c9050919050565b6000808291508390505b60018511156111e8578086048111156111c4576111c361108c565b5b60018516156111d35780820291505b80810290506111e185611191565b94506111a8565b94509492505050565b60008261120157600190506112bd565b8161120f57600090506112bd565b8160018114611225576002811461122f5761125e565b60019150506112bd565b60ff8411156112415761124061108c565b5b8360020a9150848211156112585761125761108c565b5b506112bd565b5060208310610133831016604e8410600b84101617156112935782820a90508381111561128e5761128d61108c565b5b6112bd565b6112a0848484600161119e565b925090508184048111156112b7576112b661108c565b5b81810290505b9392505050565b60006112cf82610ac6565b91506112da83610ac6565b92506113077fffffffffffffffffffffffffffffffffffffffffffffffffffffffffffffffff84846111f1565b905092915050565b7f4c656e677468206d69736d617463680000000000000000000000000000000000600082015250565b6000611345600f83610f31565b91506113508261130f565b602082019050919050565b6000602082019050818103600083015261137481611338565b9050919050565b7f4e487b7100000000000000000000000000000000000000000000000000000000600052603260045260246000fd5b60006113b582610ac6565b91506113c083610ac6565b92508282019050808211156113d8576113d761108c565b5b92915050565b60006113e982610ac6565b91507fffffffffffffffffffffffffffffffffffffffffffffffffffffffffffffffff820361141b5761141a61108c565b5b600182019050919050565b7f556e61626c6520746f2064657465726d696e652077696e6e6572000000000000600082015250565b600061145c601a83610f31565b915061146782611426565b602082019050919050565b6000602082019050818103600083015261148b8161144f565b9050919050565b6000815190506114a181610ad0565b92915050565b6000602082840312156114bd576114bc610abc565b5b60006114cb84828501611492565b91505092915050565b7f496e76616c6964206e756d626572206f66207369646573000000000000000000600082015250565b600061150a601783610f31565b9150611515826114d4565b602082019050919050565b60006020820190508181036000830152611539816114fd565b9050919050565b7f496e76616c696420706172616d65746572730000000000000000000000000000600082015250565b6000611576601283610f31565b915061158182611540565b602082019050919050565b600060208201905081810360008301526115a581611569565b9050919050565b60006115b782610ac6565b9150600082036115ca576115c961108c565b5b600182039050919050565b7f496e76616c69642072616e676500000000000000000000000000000000000000600082015250565b600061160b600d83610f31565b9150611616826115d5565b602082019050919050565b6000602082019050818103600083015261163a816115fe565b9050919050565b600061164c82610ac6565b915061165783610ac6565b92508261166757611666611131565b5b828206905092915050565b60008115159050919050565b61168781611672565b811461169257600080fd5b50565b6000815190506116a48161167e565b92915050565b60006116bd6116b884610c0a565b610bef565b905080838252602082019050602084028301858111156116e0576116df610c36565b5b835b8181101561170957806116f58882611492565b8452602084019350506020810190506116e2565b5050509392505050565b600082601f83011261172857611727610b79565b5b81516117388482602086016116aa565b91505092915050565b6000806040838503121561175857611757610abc565b5b600061176685828601611695565b925050602083015167ffffffffffffffff81111561178757611786610ac1565b5b61179385828601611713565b9150509250929050565b7f52616e646f6d20776f7264732072657175657374206e6f74207965742066756c60008201527f66696c6c65640000000000000000000000000000000000000000000000000000602082015250565b60006117f9602683610f31565b91506118048261179d565b604082019050919050565b60006020820190508181036000830152611828816117ec565b9050919050565b7f4e6f2072616e646f6d20776f72647320617661696c61626c6500000000000000600082015250565b6000611865601983610f31565b91506118708261182f565b602082019050919050565b6000602082019050818103600083015261189481611858565b9050919050565b7f44656e6f6d696e61746f722063616e6e6f74206265207a65726f000000000000600082015250565b60006118d1601a83610f31565b91506118dc8261189b565b602082019050919050565b60006020820190508181036000830152611900816118c4565b905091905056fea26469706673582212204e805804b02c0f2e8ad2bc403c5fe79d5764254fe44a2e3aadacb4587569378c64736f6c63430008130033",
			"opcodes": "PUSH1 0x80 PUSH1 0x40 MSTORE CALLVALUE DUP1 ISZERO PUSH3 0x11 JUMPI PUSH1 0x0 DUP1 REVERT JUMPDEST POP PUSH1 0x40 MLOAD PUSH3 0x1A67 CODESIZE SUB DUP1 PUSH3 0x1A67 DUP4 CODECOPY DUP2 DUP2 ADD PUSH1 0x40 MSTORE DUP2 ADD SWAP1 PUSH3 0x37 SWAP2 SWAP1 PUSH3 0xE8 JUMP JUMPDEST DUP1 PUSH1 0x0 DUP1 PUSH2 0x100 EXP DUP2 SLOAD DUP2 PUSH20 0xFFFFFFFFFFFFFFFFFFFFFFFFFFFFFFFFFFFFFFFF MUL NOT AND SWAP1 DUP4 PUSH20 0xFFFFFFFFFFFFFFFFFFFFFFFFFFFFFFFFFFFFFFFF AND MUL OR SWAP1 SSTORE POP POP PUSH3 0x11A JUMP JUMPDEST PUSH1 0x0 DUP1 REVERT JUMPDEST PUSH1 0x0 PUSH20 0xFFFFFFFFFFFFFFFFFFFFFFFFFFFFFFFFFFFFFFFF DUP3 AND SWAP1 POP SWAP2 SWAP1 POP JUMP JUMPDEST PUSH1 0x0 PUSH3 0xB0 DUP3 PUSH3 0x83 JUMP JUMPDEST SWAP1 POP SWAP2 SWAP1 POP JUMP JUMPDEST PUSH3 0xC2 DUP2 PUSH3 0xA3 JUMP JUMPDEST DUP2 EQ PUSH3 0xCE JUMPI PUSH1 0x0 DUP1 REVERT JUMPDEST POP JUMP JUMPDEST PUSH1 0x0 DUP2 MLOAD SWAP1 POP PUSH3 0xE2 DUP2 PUSH3 0xB7 JUMP JUMPDEST SWAP3 SWAP2 POP POP JUMP JUMPDEST PUSH1 0x0 PUSH1 0x20 DUP3 DUP5 SUB SLT ISZERO PUSH3 0x101 JUMPI PUSH3 0x100 PUSH3 0x7E JUMP JUMPDEST JUMPDEST PUSH1 0x0 PUSH3 0x111 DUP5 DUP3 DUP6 ADD PUSH3 0xD1 JUMP JUMPDEST SWAP2 POP POP SWAP3 SWAP2 POP POP JUMP JUMPDEST PUSH2 0x193D DUP1 PUSH3 0x12A PUSH1 0x0 CODECOPY PUSH1 0x0 RETURN INVALID PUSH1 0x80 PUSH1 0x40 MSTORE CALLVALUE DUP1 ISZERO PUSH2 0x10 JUMPI PUSH1 0x0 DUP1 REVERT JUMPDEST POP PUSH1 0x4 CALLDATASIZE LT PUSH2 0xB4 JUMPI PUSH1 0x0 CALLDATALOAD PUSH1 0xE0 SHR DUP1 PUSH4 0x609526C2 GT PUSH2 0x71 JUMPI DUP1 PUSH4 0x609526C2 EQ PUSH2 0x1B5 JUMPI DUP1 PUSH4 0x79C6E5BB EQ PUSH2 0x1E5 JUMPI DUP1 PUSH4 0x79D12923 EQ PUSH2 0x215 JUMPI DUP1 PUSH4 0x89AEA509 EQ PUSH2 0x233 JUMPI DUP1 PUSH4 0xBC29CED9 EQ PUSH2 0x251 JUMPI DUP1 PUSH4 0xE0C86289 EQ PUSH2 0x281 JUMPI PUSH2 0xB4 JUMP JUMPDEST DUP1 PUSH4 0x469C206 EQ PUSH2 0xB9 JUMPI DUP1 PUSH4 0x199C32E2 EQ PUSH2 0xE9 JUMPI DUP1 PUSH4 0x19C2B4C3 EQ PUSH2 0x119 JUMPI DUP1 PUSH4 0x2B1A6FF4 EQ PUSH2 0x137 JUMPI DUP1 PUSH4 0x3ADD009E EQ PUSH2 0x167 JUMPI DUP1 PUSH4 0x46AE43ED EQ PUSH2 0x185 JUMPI JUMPDEST PUSH1 0x0 DUP1 REVERT JUMPDEST PUSH2 0xD3 PUSH1 0x4 DUP1 CALLDATASIZE SUB DUP2 ADD SWAP1 PUSH2 0xCE SWAP2 SWAP1 PUSH2 0xAFC JUMP JUMPDEST PUSH2 0x29F JUMP JUMPDEST PUSH1 0x40 MLOAD PUSH2 0xE0 SWAP2 SWAP1 PUSH2 0xB5E JUMP JUMPDEST PUSH1 0x40 MLOAD DUP1 SWAP2 SUB SWAP1 RETURN JUMPDEST PUSH2 0x103 PUSH1 0x4 DUP1 CALLDATASIZE SUB DUP2 ADD SWAP1 PUSH2 0xFE SWAP2 SWAP1 PUSH2 0xCD2 JUMP JUMPDEST PUSH2 0x3DE JUMP JUMPDEST PUSH1 0x40 MLOAD PUSH2 0x110 SWAP2 SWAP1 PUSH2 0xB5E JUMP JUMPDEST PUSH1 0x40 MLOAD DUP1 SWAP2 SUB SWAP1 RETURN JUMPDEST PUSH2 0x121 PUSH2 0x533 JUMP JUMPDEST PUSH1 0x40 MLOAD PUSH2 0x12E SWAP2 SWAP1 PUSH2 0xB5E JUMP JUMPDEST PUSH1 0x40 MLOAD DUP1 SWAP2 SUB SWAP1 RETURN JUMPDEST PUSH2 0x151 PUSH1 0x4 DUP1 CALLDATASIZE SUB DUP2 ADD SWAP1 PUSH2 0x14C SWAP2 SWAP1 PUSH2 0xD4A JUMP JUMPDEST PUSH2 0x5CA JUMP JUMPDEST PUSH1 0x40 MLOAD PUSH2 0x15E SWAP2 SWAP1 PUSH2 0xB5E JUMP JUMPDEST PUSH1 0x40 MLOAD DUP1 SWAP2 SUB SWAP1 RETURN JUMPDEST PUSH2 0x16F PUSH2 0x620 JUMP JUMPDEST PUSH1 0x40 MLOAD PUSH2 0x17C SWAP2 SWAP1 PUSH2 0xB5E JUMP JUMPDEST PUSH1 0x40 MLOAD DUP1 SWAP2 SUB SWAP1 RETURN JUMPDEST PUSH2 0x19F PUSH1 0x4 DUP1 CALLDATASIZE SUB DUP2 ADD SWAP1 PUSH2 0x19A SWAP2 SWAP1 PUSH2 0xD77 JUMP JUMPDEST PUSH2 0x64C JUMP JUMPDEST PUSH1 0x40 MLOAD PUSH2 0x1AC SWAP2 SWAP1 PUSH2 0xE75 JUMP JUMPDEST PUSH1 0x40 MLOAD DUP1 SWAP2 SUB SWAP1 RETURN JUMPDEST PUSH2 0x1CF PUSH1 0x4 DUP1 CALLDATASIZE SUB DUP2 ADD SWAP1 PUSH2 0x1CA SWAP2 SWAP1 PUSH2 0xD77 JUMP JUMPDEST PUSH2 0x75D JUMP JUMPDEST PUSH1 0x40 MLOAD PUSH2 0x1DC SWAP2 SWAP1 PUSH2 0xB5E JUMP JUMPDEST PUSH1 0x40 MLOAD DUP1 SWAP2 SUB SWAP1 RETURN JUMPDEST PUSH2 0x1FF PUSH1 0x4 DUP1 CALLDATASIZE SUB DUP2 ADD SWAP1 PUSH2 0x1FA SWAP2 SWAP1 PUSH2 0xD4A JUMP JUMPDEST PUSH2 0x7F2 JUMP JUMPDEST PUSH1 0x40 MLOAD PUSH2 0x20C SWAP2 SWAP1 PUSH2 0xB5E JUMP JUMPDEST PUSH1 0x40 MLOAD DUP1 SWAP2 SUB SWAP1 RETURN JUMPDEST PUSH2 0x21D PUSH2 0x944 JUMP JUMPDEST PUSH1 0x40 MLOAD PUSH2 0x22A SWAP2 SWAP1 PUSH2 0xF16 JUMP JUMPDEST PUSH1 0x40 MLOAD DUP1 SWAP2 SUB SWAP1 RETURN JUMPDEST PUSH2 0x23B PUSH2 0x968 JUMP JUMPDEST PUSH1 0x40 MLOAD PUSH2 0x248 SWAP2 SWAP1 PUSH2 0xB5E JUMP JUMPDEST PUSH1 0x40 MLOAD DUP1 SWAP2 SUB SWAP1 RETURN JUMPDEST PUSH2 0x26B PUSH1 0x4 DUP1 CALLDATASIZE SUB DUP2 ADD SWAP1 PUSH2 0x266 SWAP2 SWAP1 PUSH2 0xD77 JUMP JUMPDEST PUSH2 0x97B JUMP JUMPDEST PUSH1 0x40 MLOAD PUSH2 0x278 SWAP2 SWAP1 PUSH2 0xB5E JUMP JUMPDEST PUSH1 0x40 MLOAD DUP1 SWAP2 SUB SWAP1 RETURN JUMPDEST PUSH2 0x289 PUSH2 0x9DF JUMP JUMPDEST PUSH1 0x40 MLOAD PUSH2 0x296 SWAP2 SWAP1 PUSH2 0xB5E JUMP JUMPDEST PUSH1 0x40 MLOAD DUP1 SWAP2 SUB SWAP1 RETURN JUMPDEST PUSH1 0x0 DUP3 DUP5 LT ISZERO PUSH2 0x2E4 JUMPI PUSH1 0x40 MLOAD PUSH32 0x8C379A000000000000000000000000000000000000000000000000000000000 DUP2 MSTORE PUSH1 0x4 ADD PUSH2 0x2DB SWAP1 PUSH2 0xFDA JUMP JUMPDEST PUSH1 0x40 MLOAD DUP1 SWAP2 SUB SWAP1 REVERT JUMPDEST PUSH1 0x0 DUP3 LT ISZERO DUP1 ISZERO PUSH2 0x2F6 JUMPI POP PUSH1 0x64 DUP3 GT ISZERO JUMPDEST PUSH2 0x335 JUMPI PUSH1 0x40 MLOAD PUSH32 0x8C379A000000000000000000000000000000000000000000000000000000000 DUP2 MSTORE PUSH1 0x4 ADD PUSH2 0x32C SWAP1 PUSH2 0x106C JUMP JUMPDEST PUSH1 0x40 MLOAD DUP1 SWAP2 SUB SWAP1 REVERT JUMPDEST PUSH1 0x0 PUSH2 0x34B DUP5 DUP7 PUSH2 0x346 SWAP2 SWAP1 PUSH2 0x10BB JUMP JUMPDEST PUSH2 0xA78 JUMP JUMPDEST PUSH2 0x354 DUP6 PUSH2 0xA78 JUMP JUMPDEST PUSH2 0x35E SWAP2 SWAP1 PUSH2 0x10EF JUMP JUMPDEST PUSH2 0x367 DUP7 PUSH2 0xA78 JUMP JUMPDEST PUSH2 0x371 SWAP2 SWAP1 PUSH2 0x1160 JUMP JUMPDEST SWAP1 POP PUSH1 0x0 DUP6 PUSH1 0x64 PUSH2 0x382 SWAP2 SWAP1 PUSH2 0x12C4 JUMP JUMPDEST DUP6 DUP8 PUSH2 0x38E SWAP2 SWAP1 PUSH2 0x10BB JUMP JUMPDEST DUP6 PUSH1 0x64 PUSH2 0x39B SWAP2 SWAP1 PUSH2 0x10BB JUMP JUMPDEST PUSH2 0x3A5 SWAP2 SWAP1 PUSH2 0x12C4 JUMP JUMPDEST DUP7 DUP7 PUSH2 0x3B1 SWAP2 SWAP1 PUSH2 0x12C4 JUMP JUMPDEST PUSH2 0x3BB SWAP2 SWAP1 PUSH2 0x10EF JUMP JUMPDEST DUP4 PUSH2 0x3C6 SWAP2 SWAP1 PUSH2 0x10EF JUMP JUMPDEST PUSH2 0x3D0 SWAP2 SWAP1 PUSH2 0x1160 JUMP JUMPDEST SWAP1 POP DUP1 SWAP3 POP POP POP SWAP4 SWAP3 POP POP POP JUMP JUMPDEST PUSH1 0x0 DUP2 MLOAD DUP4 MLOAD EQ PUSH2 0x424 JUMPI PUSH1 0x40 MLOAD PUSH32 0x8C379A000000000000000000000000000000000000000000000000000000000 DUP2 MSTORE PUSH1 0x4 ADD PUSH2 0x41B SWAP1 PUSH2 0x135B JUMP JUMPDEST PUSH1 0x40 MLOAD DUP1 SWAP2 SUB SWAP1 REVERT JUMPDEST PUSH1 0x0 DUP1 JUMPDEST DUP4 MLOAD DUP2 LT ISZERO PUSH2 0x46C JUMPI DUP4 DUP2 DUP2 MLOAD DUP2 LT PUSH2 0x444 JUMPI PUSH2 0x443 PUSH2 0x137B JUMP JUMPDEST JUMPDEST PUSH1 0x20 MUL PUSH1 0x20 ADD ADD MLOAD DUP3 PUSH2 0x457 SWAP2 SWAP1 PUSH2 0x13AA JUMP JUMPDEST SWAP2 POP DUP1 DUP1 PUSH2 0x464 SWAP1 PUSH2 0x13DE JUMP JUMPDEST SWAP2 POP POP PUSH2 0x428 JUMP JUMPDEST POP PUSH1 0x0 PUSH2 0x47A PUSH1 0x1 DUP4 PUSH2 0x75D JUMP JUMPDEST SWAP1 POP PUSH1 0x0 DUP1 JUMPDEST DUP6 MLOAD DUP2 LT ISZERO PUSH2 0x4F1 JUMPI DUP6 DUP2 DUP2 MLOAD DUP2 LT PUSH2 0x49C JUMPI PUSH2 0x49B PUSH2 0x137B JUMP JUMPDEST JUMPDEST PUSH1 0x20 MUL PUSH1 0x20 ADD ADD MLOAD DUP3 PUSH2 0x4AF SWAP2 SWAP1 PUSH2 0x13AA JUMP JUMPDEST SWAP2 POP DUP2 DUP4 GT PUSH2 0x4DE JUMPI DUP7 DUP2 DUP2 MLOAD DUP2 LT PUSH2 0x4CB JUMPI PUSH2 0x4CA PUSH2 0x137B JUMP JUMPDEST JUMPDEST PUSH1 0x20 MUL PUSH1 0x20 ADD ADD MLOAD SWAP5 POP POP POP POP POP PUSH2 0x52D JUMP JUMPDEST DUP1 DUP1 PUSH2 0x4E9 SWAP1 PUSH2 0x13DE JUMP JUMPDEST SWAP2 POP POP PUSH2 0x480 JUMP JUMPDEST POP PUSH1 0x40 MLOAD PUSH32 0x8C379A000000000000000000000000000000000000000000000000000000000 DUP2 MSTORE PUSH1 0x4 ADD PUSH2 0x524 SWAP1 PUSH2 0x1472 JUMP JUMPDEST PUSH1 0x40 MLOAD DUP1 SWAP2 SUB SWAP1 REVERT JUMPDEST SWAP3 SWAP2 POP POP JUMP JUMPDEST PUSH1 0x0 DUP1 PUSH1 0x0 SWAP1 SLOAD SWAP1 PUSH2 0x100 EXP SWAP1 DIV PUSH20 0xFFFFFFFFFFFFFFFFFFFFFFFFFFFFFFFFFFFFFFFF AND PUSH20 0xFFFFFFFFFFFFFFFFFFFFFFFFFFFFFFFFFFFFFFFF AND PUSH4 0xFC2A88C3 PUSH1 0x40 MLOAD DUP2 PUSH4 0xFFFFFFFF AND PUSH1 0xE0 SHL DUP2 MSTORE PUSH1 0x4 ADD PUSH1 0x20 PUSH1 0x40 MLOAD DUP1 DUP4 SUB DUP2 DUP7 GAS STATICCALL ISZERO DUP1 ISZERO PUSH2 0x5A1 JUMPI RETURNDATASIZE PUSH1 0x0 DUP1 RETURNDATACOPY RETURNDATASIZE PUSH1 0x0 REVERT JUMPDEST POP POP POP POP PUSH1 0x40 MLOAD RETURNDATASIZE PUSH1 0x1F NOT PUSH1 0x1F DUP3 ADD AND DUP3 ADD DUP1 PUSH1 0x40 MSTORE POP DUP2 ADD SWAP1 PUSH2 0x5C5 SWAP2 SWAP1 PUSH2 0x14A7 JUMP JUMPDEST SWAP1 POP SWAP1 JUMP JUMPDEST PUSH1 0x0 DUP1 DUP3 GT PUSH2 0x60E JUMPI PUSH1 0x40 MLOAD PUSH32 0x8C379A000000000000000000000000000000000000000000000000000000000 DUP2 MSTORE PUSH1 0x4 ADD PUSH2 0x605 SWAP1 PUSH2 0x1520 JUMP JUMPDEST PUSH1 0x40 MLOAD DUP1 SWAP2 SUB SWAP1 REVERT JUMPDEST PUSH2 0x619 PUSH1 0x1 DUP4 PUSH2 0x75D JUMP JUMPDEST SWAP1 POP SWAP2 SWAP1 POP JUMP JUMPDEST PUSH1 0x0 DUP1 PUSH2 0x62F PUSH1 0x0 PUSH1 0x1 PUSH2 0x75D JUMP JUMPDEST SWAP1 POP PUSH1 0x0 DUP2 SUB PUSH2 0x643 JUMPI PUSH1 0x0 SWAP2 POP POP PUSH2 0x649 JUMP JUMPDEST PUSH1 0x1 SWAP2 POP POP JUMPDEST SWAP1 JUMP JUMPDEST PUSH1 0x60 PUSH1 0x0 DUP4 GT DUP1 ISZERO PUSH2 0x65E JUMPI POP PUSH1 0x0 DUP3 GT JUMPDEST DUP1 ISZERO PUSH2 0x66A JUMPI POP DUP3 DUP3 GT ISZERO JUMPDEST PUSH2 0x6A9 JUMPI PUSH1 0x40 MLOAD PUSH32 0x8C379A000000000000000000000000000000000000000000000000000000000 DUP2 MSTORE PUSH1 0x4 ADD PUSH2 0x6A0 SWAP1 PUSH2 0x158C JUMP JUMPDEST PUSH1 0x40 MLOAD DUP1 SWAP2 SUB SWAP1 REVERT JUMPDEST PUSH1 0x0 DUP3 PUSH8 0xFFFFFFFFFFFFFFFF DUP2 GT ISZERO PUSH2 0x6C5 JUMPI PUSH2 0x6C4 PUSH2 0xB8F JUMP JUMPDEST JUMPDEST PUSH1 0x40 MLOAD SWAP1 DUP1 DUP3 MSTORE DUP1 PUSH1 0x20 MUL PUSH1 0x20 ADD DUP3 ADD PUSH1 0x40 MSTORE DUP1 ISZERO PUSH2 0x6F3 JUMPI DUP2 PUSH1 0x20 ADD PUSH1 0x20 DUP3 MUL DUP1 CALLDATASIZE DUP4 CALLDATACOPY DUP1 DUP3 ADD SWAP2 POP POP SWAP1 POP JUMPDEST POP SWAP1 POP PUSH1 0x0 DUP5 SWAP1 POP PUSH1 0x0 JUMPDEST DUP5 DUP2 LT ISZERO PUSH2 0x751 JUMPI PUSH2 0x711 PUSH1 0x1 DUP4 PUSH2 0x75D JUMP JUMPDEST DUP4 DUP3 DUP2 MLOAD DUP2 LT PUSH2 0x724 JUMPI PUSH2 0x723 PUSH2 0x137B JUMP JUMPDEST JUMPDEST PUSH1 0x20 MUL PUSH1 0x20 ADD ADD DUP2 DUP2 MSTORE POP POP DUP2 DUP1 PUSH2 0x73B SWAP1 PUSH2 0x15AC JUMP JUMPDEST SWAP3 POP POP DUP1 DUP1 PUSH2 0x749 SWAP1 PUSH2 0x13DE JUMP JUMPDEST SWAP2 POP POP PUSH2 0x6FE JUMP JUMPDEST POP DUP2 SWAP3 POP POP POP SWAP3 SWAP2 POP POP JUMP JUMPDEST PUSH1 0x0 DUP3 DUP3 GT PUSH2 0x7A1 JUMPI PUSH1 0x40 MLOAD PUSH32 0x8C379A000000000000000000000000000000000000000000000000000000000 DUP2 MSTORE PUSH1 0x4 ADD PUSH2 0x798 SWAP1 PUSH2 0x1621 JUMP JUMPDEST PUSH1 0x40 MLOAD DUP1 SWAP2 SUB SWAP1 REVERT JUMPDEST PUSH1 0x0 PUSH2 0x7AB PUSH2 0x533 JUMP JUMPDEST SWAP1 POP PUSH1 0x0 DUP5 PUSH1 0x1 DUP7 DUP7 PUSH2 0x7BE SWAP2 SWAP1 PUSH2 0x10BB JUMP JUMPDEST PUSH2 0x7C8 SWAP2 SWAP1 PUSH2 0x13AA JUMP JUMPDEST PUSH2 0x7D1 DUP5 PUSH2 0x7F2 JUMP JUMPDEST PUSH2 0x7DB SWAP2 SWAP1 PUSH2 0x1641 JUMP JUMPDEST PUSH2 0x7E5 SWAP2 SWAP1 PUSH2 0x13AA JUMP JUMPDEST SWAP1 POP DUP1 SWAP3 POP POP POP SWAP3 SWAP2 POP POP JUMP JUMPDEST PUSH1 0x0 DUP1 PUSH1 0x0 DUP1 PUSH1 0x0 SWAP1 SLOAD SWAP1 PUSH2 0x100 EXP SWAP1 DIV PUSH20 0xFFFFFFFFFFFFFFFFFFFFFFFFFFFFFFFFFFFFFFFF AND PUSH20 0xFFFFFFFFFFFFFFFFFFFFFFFFFFFFFFFFFFFFFFFF AND PUSH4 0xD8A4676F DUP6 PUSH1 0x40 MLOAD DUP3 PUSH4 0xFFFFFFFF AND PUSH1 0xE0 SHL DUP2 MSTORE PUSH1 0x4 ADD PUSH2 0x851 SWAP2 SWAP1 PUSH2 0xB5E JUMP JUMPDEST PUSH1 0x0 PUSH1 0x40 MLOAD DUP1 DUP4 SUB DUP2 DUP7 GAS STATICCALL ISZERO DUP1 ISZERO PUSH2 0x86E JUMPI RETURNDATASIZE PUSH1 0x0 DUP1 RETURNDATACOPY RETURNDATASIZE PUSH1 0x0 REVERT JUMPDEST POP POP POP POP PUSH1 0x40 MLOAD RETURNDATASIZE PUSH1 0x0 DUP3 RETURNDATACOPY RETURNDATASIZE PUSH1 0x1F NOT PUSH1 0x1F DUP3 ADD AND DUP3 ADD DUP1 PUSH1 0x40 MSTORE POP DUP2 ADD SWAP1 PUSH2 0x897 SWAP2 SWAP1 PUSH2 0x1741 JUMP JUMPDEST SWAP2 POP SWAP2 POP DUP2 PUSH2 0x8DB JUMPI PUSH1 0x40 MLOAD PUSH32 0x8C379A000000000000000000000000000000000000000000000000000000000 DUP2 MSTORE PUSH1 0x4 ADD PUSH2 0x8D2 SWAP1 PUSH2 0x180F JUMP JUMPDEST PUSH1 0x40 MLOAD DUP1 SWAP2 SUB SWAP1 REVERT JUMPDEST PUSH1 0x0 DUP2 MLOAD GT PUSH2 0x91F JUMPI PUSH1 0x40 MLOAD PUSH32 0x8C379A000000000000000000000000000000000000000000000000000000000 DUP2 MSTORE PUSH1 0x4 ADD PUSH2 0x916 SWAP1 PUSH2 0x187B JUMP JUMPDEST PUSH1 0x40 MLOAD DUP1 SWAP2 SUB SWAP1 REVERT JUMPDEST DUP1 PUSH1 0x0 DUP2 MLOAD DUP2 LT PUSH2 0x933 JUMPI PUSH2 0x932 PUSH2 0x137B JUMP JUMPDEST JUMPDEST PUSH1 0x20 MUL PUSH1 0x20 ADD ADD MLOAD SWAP3 POP POP POP SWAP2 SWAP1 POP JUMP JUMPDEST PUSH1 0x0 DUP1 SLOAD SWAP1 PUSH2 0x100 EXP SWAP1 DIV PUSH20 0xFFFFFFFFFFFFFFFFFFFFFFFFFFFFFFFFFFFFFFFF AND DUP2 JUMP JUMPDEST PUSH1 0x0 PUSH2 0x976 PUSH1 0x0 PUSH1 0x24 PUSH2 0x75D JUMP JUMPDEST SWAP1 POP SWAP1 JUMP JUMPDEST PUSH1 0x0 DUP1 DUP3 SUB PUSH2 0x9BF JUMPI PUSH1 0x40 MLOAD PUSH32 0x8C379A000000000000000000000000000000000000000000000000000000000 DUP2 MSTORE PUSH1 0x4 ADD PUSH2 0x9B6 SWAP1 PUSH2 0x18E7 JUMP JUMPDEST PUSH1 0x40 MLOAD DUP1 SWAP2 SUB SWAP1 REVERT JUMPDEST DUP2 PUSH1 0x64 DUP5 PUSH2 0x9CD SWAP2 SWAP1 PUSH2 0x10EF JUMP JUMPDEST PUSH2 0x9D7 SWAP2 SWAP1 PUSH2 0x1160 JUMP JUMPDEST SWAP1 POP SWAP3 SWAP2 POP POP JUMP JUMPDEST PUSH1 0x0 DUP1 PUSH1 0x0 SWAP1 SLOAD SWAP1 PUSH2 0x100 EXP SWAP1 DIV PUSH20 0xFFFFFFFFFFFFFFFFFFFFFFFFFFFFFFFFFFFFFFFF AND PUSH20 0xFFFFFFFFFFFFFFFFFFFFFFFFFFFFFFFFFFFFFFFF AND PUSH4 0xE0C86289 PUSH1 0x40 MLOAD DUP2 PUSH4 0xFFFFFFFF AND PUSH1 0xE0 SHL DUP2 MSTORE PUSH1 0x4 ADD PUSH1 0x20 PUSH1 0x40 MLOAD DUP1 DUP4 SUB DUP2 PUSH1 0x0 DUP8 GAS CALL ISZERO DUP1 ISZERO PUSH2 0xA4F JUMPI RETURNDATASIZE PUSH1 0x0 DUP1 RETURNDATACOPY RETURNDATASIZE PUSH1 0x0 REVERT JUMPDEST POP POP POP POP PUSH1 0x40 MLOAD RETURNDATASIZE PUSH1 0x1F NOT PUSH1 0x1F DUP3 ADD AND DUP3 ADD DUP1 PUSH1 0x40 MSTORE POP DUP2 ADD SWAP1 PUSH2 0xA73 SWAP2 SWAP1 PUSH2 0x14A7 JUMP JUMPDEST SWAP1 POP SWAP1 JUMP JUMPDEST PUSH1 0x0 DUP1 DUP3 SUB PUSH2 0xA8A JUMPI PUSH1 0x1 SWAP1 POP PUSH2 0xAAD JUMP JUMPDEST PUSH2 0xA9F PUSH1 0x1 DUP4 PUSH2 0xA9A SWAP2 SWAP1 PUSH2 0x10BB JUMP JUMPDEST PUSH2 0xA78 JUMP JUMPDEST DUP3 PUSH2 0xAAA SWAP2 SWAP1 PUSH2 0x10EF JUMP JUMPDEST SWAP1 POP JUMPDEST SWAP2 SWAP1 POP JUMP JUMPDEST PUSH1 0x0 PUSH1 0x40 MLOAD SWAP1 POP SWAP1 JUMP JUMPDEST PUSH1 0x0 DUP1 REVERT JUMPDEST PUSH1 0x0 DUP1 REVERT JUMPDEST PUSH1 0x0 DUP2 SWAP1 POP SWAP2 SWAP1 POP JUMP JUMPDEST PUSH2 0xAD9 DUP2 PUSH2 0xAC6 JUMP JUMPDEST DUP2 EQ PUSH2 0xAE4 JUMPI PUSH1 0x0 DUP1 REVERT JUMPDEST POP JUMP JUMPDEST PUSH1 0x0 DUP2 CALLDATALOAD SWAP1 POP PUSH2 0xAF6 DUP2 PUSH2 0xAD0 JUMP JUMPDEST SWAP3 SWAP2 POP POP JUMP JUMPDEST PUSH1 0x0 DUP1 PUSH1 0x0 PUSH1 0x60 DUP5 DUP7 SUB SLT ISZERO PUSH2 0xB15 JUMPI PUSH2 0xB14 PUSH2 0xABC JUMP JUMPDEST JUMPDEST PUSH1 0x0 PUSH2 0xB23 DUP7 DUP3 DUP8 ADD PUSH2 0xAE7 JUMP JUMPDEST SWAP4 POP POP PUSH1 0x20 PUSH2 0xB34 DUP7 DUP3 DUP8 ADD PUSH2 0xAE7 JUMP JUMPDEST SWAP3 POP POP PUSH1 0x40 PUSH2 0xB45 DUP7 DUP3 DUP8 ADD PUSH2 0xAE7 JUMP JUMPDEST SWAP2 POP POP SWAP3 POP SWAP3 POP SWAP3 JUMP JUMPDEST PUSH2 0xB58 DUP2 PUSH2 0xAC6 JUMP JUMPDEST DUP3 MSTORE POP POP JUMP JUMPDEST PUSH1 0x0 PUSH1 0x20 DUP3 ADD SWAP1 POP PUSH2 0xB73 PUSH1 0x0 DUP4 ADD DUP5 PUSH2 0xB4F JUMP JUMPDEST SWAP3 SWAP2 POP POP JUMP JUMPDEST PUSH1 0x0 DUP1 REVERT JUMPDEST PUSH1 0x0 PUSH1 0x1F NOT PUSH1 0x1F DUP4 ADD AND SWAP1 POP SWAP2 SWAP1 POP JUMP JUMPDEST PUSH32 0x4E487B7100000000000000000000000000000000000000000000000000000000 PUSH1 0x0 MSTORE PUSH1 0x41 PUSH1 0x4 MSTORE PUSH1 0x24 PUSH1 0x0 REVERT JUMPDEST PUSH2 0xBC7 DUP3 PUSH2 0xB7E JUMP JUMPDEST DUP2 ADD DUP2 DUP2 LT PUSH8 0xFFFFFFFFFFFFFFFF DUP3 GT OR ISZERO PUSH2 0xBE6 JUMPI PUSH2 0xBE5 PUSH2 0xB8F JUMP JUMPDEST JUMPDEST DUP1 PUSH1 0x40 MSTORE POP POP POP JUMP JUMPDEST PUSH1 0x0 PUSH2 0xBF9 PUSH2 0xAB2 JUMP JUMPDEST SWAP1 POP PUSH2 0xC05 DUP3 DUP3 PUSH2 0xBBE JUMP JUMPDEST SWAP2 SWAP1 POP JUMP JUMPDEST PUSH1 0x0 PUSH8 0xFFFFFFFFFFFFFFFF DUP3 GT ISZERO PUSH2 0xC25 JUMPI PUSH2 0xC24 PUSH2 0xB8F JUMP JUMPDEST JUMPDEST PUSH1 0x20 DUP3 MUL SWAP1 POP PUSH1 0x20 DUP2 ADD SWAP1 POP SWAP2 SWAP1 POP JUMP JUMPDEST PUSH1 0x0 DUP1 REVERT JUMPDEST PUSH1 0x0 PUSH2 0xC4E PUSH2 0xC49 DUP5 PUSH2 0xC0A JUMP JUMPDEST PUSH2 0xBEF JUMP JUMPDEST SWAP1 POP DUP1 DUP4 DUP3 MSTORE PUSH1 0x20 DUP3 ADD SWAP1 POP PUSH1 0x20 DUP5 MUL DUP4 ADD DUP6 DUP2 GT ISZERO PUSH2 0xC71 JUMPI PUSH2 0xC70 PUSH2 0xC36 JUMP JUMPDEST JUMPDEST DUP4 JUMPDEST DUP2 DUP2 LT ISZERO PUSH2 0xC9A JUMPI DUP1 PUSH2 0xC86 DUP9 DUP3 PUSH2 0xAE7 JUMP JUMPDEST DUP5 MSTORE PUSH1 0x20 DUP5 ADD SWAP4 POP POP PUSH1 0x20 DUP2 ADD SWAP1 POP PUSH2 0xC73 JUMP JUMPDEST POP POP POP SWAP4 SWAP3 POP POP POP JUMP JUMPDEST PUSH1 0x0 DUP3 PUSH1 0x1F DUP4 ADD SLT PUSH2 0xCB9 JUMPI PUSH2 0xCB8 PUSH2 0xB79 JUMP JUMPDEST JUMPDEST DUP2 CALLDATALOAD PUSH2 0xCC9 DUP5 DUP3 PUSH1 0x20 DUP7 ADD PUSH2 0xC3B JUMP JUMPDEST SWAP2 POP POP SWAP3 SWAP2 POP POP JUMP JUMPDEST PUSH1 0x0 DUP1 PUSH1 0x40 DUP4 DUP6 SUB SLT ISZERO PUSH2 0xCE9 JUMPI PUSH2 0xCE8 PUSH2 0xABC JUMP JUMPDEST JUMPDEST PUSH1 0x0 DUP4 ADD CALLDATALOAD PUSH8 0xFFFFFFFFFFFFFFFF DUP2 GT ISZERO PUSH2 0xD07 JUMPI PUSH2 0xD06 PUSH2 0xAC1 JUMP JUMPDEST JUMPDEST PUSH2 0xD13 DUP6 DUP3 DUP7 ADD PUSH2 0xCA4 JUMP JUMPDEST SWAP3 POP POP PUSH1 0x20 DUP4 ADD CALLDATALOAD PUSH8 0xFFFFFFFFFFFFFFFF DUP2 GT ISZERO PUSH2 0xD34 JUMPI PUSH2 0xD33 PUSH2 0xAC1 JUMP JUMPDEST JUMPDEST PUSH2 0xD40 DUP6 DUP3 DUP7 ADD PUSH2 0xCA4 JUMP JUMPDEST SWAP2 POP POP SWAP3 POP SWAP3 SWAP1 POP JUMP JUMPDEST PUSH1 0x0 PUSH1 0x20 DUP3 DUP5 SUB SLT ISZERO PUSH2 0xD60 JUMPI PUSH2 0xD5F PUSH2 0xABC JUMP JUMPDEST JUMPDEST PUSH1 0x0 PUSH2 0xD6E DUP5 DUP3 DUP6 ADD PUSH2 0xAE7 JUMP JUMPDEST SWAP2 POP POP SWAP3 SWAP2 POP POP JUMP JUMPDEST PUSH1 0x0 DUP1 PUSH1 0x40 DUP4 DUP6 SUB SLT ISZERO PUSH2 0xD8E JUMPI PUSH2 0xD8D PUSH2 0xABC JUMP JUMPDEST JUMPDEST PUSH1 0x0 PUSH2 0xD9C DUP6 DUP3 DUP7 ADD PUSH2 0xAE7 JUMP JUMPDEST SWAP3 POP POP PUSH1 0x20 PUSH2 0xDAD DUP6 DUP3 DUP7 ADD PUSH2 0xAE7 JUMP JUMPDEST SWAP2 POP POP SWAP3 POP SWAP3 SWAP1 POP JUMP JUMPDEST PUSH1 0x0 DUP2 MLOAD SWAP1 POP SWAP2 SWAP1 POP JUMP JUMPDEST PUSH1 0x0 DUP3 DUP3 MSTORE PUSH1 0x20 DUP3 ADD SWAP1 POP SWAP3 SWAP2 POP POP JUMP JUMPDEST PUSH1 0x0 DUP2 SWAP1 POP PUSH1 0x20 DUP3 ADD SWAP1 POP SWAP2 SWAP1 POP JUMP JUMPDEST PUSH2 0xDEC DUP2 PUSH2 0xAC6 JUMP JUMPDEST DUP3 MSTORE POP POP JUMP JUMPDEST PUSH1 0x0 PUSH2 0xDFE DUP4 DUP4 PUSH2 0xDE3 JUMP JUMPDEST PUSH1 0x20 DUP4 ADD SWAP1 POP SWAP3 SWAP2 POP POP JUMP JUMPDEST PUSH1 0x0 PUSH1 0x20 DUP3 ADD SWAP1 POP SWAP2 SWAP1 POP JUMP JUMPDEST PUSH1 0x0 PUSH2 0xE22 DUP3 PUSH2 0xDB7 JUMP JUMPDEST PUSH2 0xE2C DUP2 DUP6 PUSH2 0xDC2 JUMP JUMPDEST SWAP4 POP PUSH2 0xE37 DUP4 PUSH2 0xDD3 JUMP JUMPDEST DUP1 PUSH1 0x0 JUMPDEST DUP4 DUP2 LT ISZERO PUSH2 0xE68 JUMPI DUP2 MLOAD PUSH2 0xE4F DUP9 DUP3 PUSH2 0xDF2 JUMP JUMPDEST SWAP8 POP PUSH2 0xE5A DUP4 PUSH2 0xE0A JUMP JUMPDEST SWAP3 POP POP PUSH1 0x1 DUP2 ADD SWAP1 POP PUSH2 0xE3B JUMP JUMPDEST POP DUP6 SWAP4 POP POP POP POP SWAP3 SWAP2 POP POP JUMP JUMPDEST PUSH1 0x0 PUSH1 0x20 DUP3 ADD SWAP1 POP DUP2 DUP2 SUB PUSH1 0x0 DUP4 ADD MSTORE PUSH2 0xE8F DUP2 DUP5 PUSH2 0xE17 JUMP JUMPDEST SWAP1 POP SWAP3 SWAP2 POP POP JUMP JUMPDEST PUSH1 0x0 PUSH20 0xFFFFFFFFFFFFFFFFFFFFFFFFFFFFFFFFFFFFFFFF DUP3 AND SWAP1 POP SWAP2 SWAP1 POP JUMP JUMPDEST PUSH1 0x0 DUP2 SWAP1 POP SWAP2 SWAP1 POP JUMP JUMPDEST PUSH1 0x0 PUSH2 0xEDC PUSH2 0xED7 PUSH2 0xED2 DUP5 PUSH2 0xE97 JUMP JUMPDEST PUSH2 0xEB7 JUMP JUMPDEST PUSH2 0xE97 JUMP JUMPDEST SWAP1 POP SWAP2 SWAP1 POP JUMP JUMPDEST PUSH1 0x0 PUSH2 0xEEE DUP3 PUSH2 0xEC1 JUMP JUMPDEST SWAP1 POP SWAP2 SWAP1 POP JUMP JUMPDEST PUSH1 0x0 PUSH2 0xF00 DUP3 PUSH2 0xEE3 JUMP JUMPDEST SWAP1 POP SWAP2 SWAP1 POP JUMP JUMPDEST PUSH2 0xF10 DUP2 PUSH2 0xEF5 JUMP JUMPDEST DUP3 MSTORE POP POP JUMP JUMPDEST PUSH1 0x0 PUSH1 0x20 DUP3 ADD SWAP1 POP PUSH2 0xF2B PUSH1 0x0 DUP4 ADD DUP5 PUSH2 0xF07 JUMP JUMPDEST SWAP3 SWAP2 POP POP JUMP JUMPDEST PUSH1 0x0 DUP3 DUP3 MSTORE PUSH1 0x20 DUP3 ADD SWAP1 POP SWAP3 SWAP2 POP POP JUMP JUMPDEST PUSH32 0x4E756D626572206F6620747269616C73206D7573742062652067726561746572 PUSH1 0x0 DUP3 ADD MSTORE PUSH32 0x207468616E206F7220657175616C20746F206E756D626572206F662073756363 PUSH1 0x20 DUP3 ADD MSTORE PUSH32 0x6573736573000000000000000000000000000000000000000000000000000000 PUSH1 0x40 DUP3 ADD MSTORE POP JUMP JUMPDEST PUSH1 0x0 PUSH2 0xFC4 PUSH1 0x45 DUP4 PUSH2 0xF31 JUMP JUMPDEST SWAP2 POP PUSH2 0xFCF DUP3 PUSH2 0xF42 JUMP JUMPDEST PUSH1 0x60 DUP3 ADD SWAP1 POP SWAP2 SWAP1 POP JUMP JUMPDEST PUSH1 0x0 PUSH1 0x20 DUP3 ADD SWAP1 POP DUP2 DUP2 SUB PUSH1 0x0 DUP4 ADD MSTORE PUSH2 0xFF3 DUP2 PUSH2 0xFB7 JUMP JUMPDEST SWAP1 POP SWAP2 SWAP1 POP JUMP JUMPDEST PUSH32 0x50726F626162696C697479206D757374206265206265747765656E203020616E PUSH1 0x0 DUP3 ADD MSTORE PUSH32 0x6420313030000000000000000000000000000000000000000000000000000000 PUSH1 0x20 DUP3 ADD MSTORE POP JUMP JUMPDEST PUSH1 0x0 PUSH2 0x1056 PUSH1 0x25 DUP4 PUSH2 0xF31 JUMP JUMPDEST SWAP2 POP PUSH2 0x1061 DUP3 PUSH2 0xFFA JUMP JUMPDEST PUSH1 0x40 DUP3 ADD SWAP1 POP SWAP2 SWAP1 POP JUMP JUMPDEST PUSH1 0x0 PUSH1 0x20 DUP3 ADD SWAP1 POP DUP2 DUP2 SUB PUSH1 0x0 DUP4 ADD MSTORE PUSH2 0x1085 DUP2 PUSH2 0x1049 JUMP JUMPDEST SWAP1 POP SWAP2 SWAP1 POP JUMP JUMPDEST PUSH32 0x4E487B7100000000000000000000000000000000000000000000000000000000 PUSH1 0x0 MSTORE PUSH1 0x11 PUSH1 0x4 MSTORE PUSH1 0x24 PUSH1 0x0 REVERT JUMPDEST PUSH1 0x0 PUSH2 0x10C6 DUP3 PUSH2 0xAC6 JUMP JUMPDEST SWAP2 POP PUSH2 0x10D1 DUP4 PUSH2 0xAC6 JUMP JUMPDEST SWAP3 POP DUP3 DUP3 SUB SWAP1 POP DUP2 DUP2 GT ISZERO PUSH2 0x10E9 JUMPI PUSH2 0x10E8 PUSH2 0x108C JUMP JUMPDEST JUMPDEST SWAP3 SWAP2 POP POP JUMP JUMPDEST PUSH1 0x0 PUSH2 0x10FA DUP3 PUSH2 0xAC6 JUMP JUMPDEST SWAP2 POP PUSH2 0x1105 DUP4 PUSH2 0xAC6 JUMP JUMPDEST SWAP3 POP DUP3 DUP3 MUL PUSH2 0x1113 DUP2 PUSH2 0xAC6 JUMP JUMPDEST SWAP2 POP DUP3 DUP3 DIV DUP5 EQ DUP4 ISZERO OR PUSH2 0x112A JUMPI PUSH2 0x1129 PUSH2 0x108C JUMP JUMPDEST JUMPDEST POP SWAP3 SWAP2 POP POP JUMP JUMPDEST PUSH32 0x4E487B7100000000000000000000000000000000000000000000000000000000 PUSH1 0x0 MSTORE PUSH1 0x12 PUSH1 0x4 MSTORE PUSH1 0x24 PUSH1 0x0 REVERT JUMPDEST PUSH1 0x0 PUSH2 0x116B DUP3 PUSH2 0xAC6 JUMP JUMPDEST SWAP2 POP PUSH2 0x1176 DUP4 PUSH2 0xAC6 JUMP JUMPDEST SWAP3 POP DUP3 PUSH2 0x1186 JUMPI PUSH2 0x1185 PUSH2 0x1131 JUMP JUMPDEST JUMPDEST DUP3 DUP3 DIV SWAP1 POP SWAP3 SWAP2 POP POP JUMP JUMPDEST PUSH1 0x0 DUP2 PUSH1 0x1 SHR SWAP1 POP SWAP2 SWAP1 POP JUMP JUMPDEST PUSH1 0x0 DUP1 DUP3 SWAP2 POP DUP4 SWAP1 POP JUMPDEST PUSH1 0x1 DUP6 GT ISZERO PUSH2 0x11E8 JUMPI DUP1 DUP7 DIV DUP2 GT ISZERO PUSH2 0x11C4 JUMPI PUSH2 0x11C3 PUSH2 0x108C JUMP JUMPDEST JUMPDEST PUSH1 0x1 DUP6 AND ISZERO PUSH2 0x11D3 JUMPI DUP1 DUP3 MUL SWAP2 POP JUMPDEST DUP1 DUP2 MUL SWAP1 POP PUSH2 0x11E1 DUP6 PUSH2 0x1191 JUMP JUMPDEST SWAP5 POP PUSH2 0x11A8 JUMP JUMPDEST SWAP5 POP SWAP5 SWAP3 POP POP POP JUMP JUMPDEST PUSH1 0x0 DUP3 PUSH2 0x1201 JUMPI PUSH1 0x1 SWAP1 POP PUSH2 0x12BD JUMP JUMPDEST DUP2 PUSH2 0x120F JUMPI PUSH1 0x0 SWAP1 POP PUSH2 0x12BD JUMP JUMPDEST DUP2 PUSH1 0x1 DUP2 EQ PUSH2 0x1225 JUMPI PUSH1 0x2 DUP2 EQ PUSH2 0x122F JUMPI PUSH2 0x125E JUMP JUMPDEST PUSH1 0x1 SWAP2 POP POP PUSH2 0x12BD JUMP JUMPDEST PUSH1 0xFF DUP5 GT ISZERO PUSH2 0x1241 JUMPI PUSH2 0x1240 PUSH2 0x108C JUMP JUMPDEST JUMPDEST DUP4 PUSH1 0x2 EXP SWAP2 POP DUP5 DUP3 GT ISZERO PUSH2 0x1258 JUMPI PUSH2 0x1257 PUSH2 0x108C JUMP JUMPDEST JUMPDEST POP PUSH2 0x12BD JUMP JUMPDEST POP PUSH1 0x20 DUP4 LT PUSH2 0x133 DUP4 LT AND PUSH1 0x4E DUP5 LT PUSH1 0xB DUP5 LT AND OR ISZERO PUSH2 0x1293 JUMPI DUP3 DUP3 EXP SWAP1 POP DUP4 DUP2 GT ISZERO PUSH2 0x128E JUMPI PUSH2 0x128D PUSH2 0x108C JUMP JUMPDEST JUMPDEST PUSH2 0x12BD JUMP JUMPDEST PUSH2 0x12A0 DUP5 DUP5 DUP5 PUSH1 0x1 PUSH2 0x119E JUMP JUMPDEST SWAP3 POP SWAP1 POP DUP2 DUP5 DIV DUP2 GT ISZERO PUSH2 0x12B7 JUMPI PUSH2 0x12B6 PUSH2 0x108C JUMP JUMPDEST JUMPDEST DUP2 DUP2 MUL SWAP1 POP JUMPDEST SWAP4 SWAP3 POP POP POP JUMP JUMPDEST PUSH1 0x0 PUSH2 0x12CF DUP3 PUSH2 0xAC6 JUMP JUMPDEST SWAP2 POP PUSH2 0x12DA DUP4 PUSH2 0xAC6 JUMP JUMPDEST SWAP3 POP PUSH2 0x1307 PUSH32 0xFFFFFFFFFFFFFFFFFFFFFFFFFFFFFFFFFFFFFFFFFFFFFFFFFFFFFFFFFFFFFFFF DUP5 DUP5 PUSH2 0x11F1 JUMP JUMPDEST SWAP1 POP SWAP3 SWAP2 POP POP JUMP JUMPDEST PUSH32 0x4C656E677468206D69736D617463680000000000000000000000000000000000 PUSH1 0x0 DUP3 ADD MSTORE POP JUMP JUMPDEST PUSH1 0x0 PUSH2 0x1345 PUSH1 0xF DUP4 PUSH2 0xF31 JUMP JUMPDEST SWAP2 POP PUSH2 0x1350 DUP3 PUSH2 0x130F JUMP JUMPDEST PUSH1 0x20 DUP3 ADD SWAP1 POP SWAP2 SWAP1 POP JUMP JUMPDEST PUSH1 0x0 PUSH1 0x20 DUP3 ADD SWAP1 POP DUP2 DUP2 SUB PUSH1 0x0 DUP4 ADD MSTORE PUSH2 0x1374 DUP2 PUSH2 0x1338 JUMP JUMPDEST SWAP1 POP SWAP2 SWAP1 POP JUMP JUMPDEST PUSH32 0x4E487B7100000000000000000000000000000000000000000000000000000000 PUSH1 0x0 MSTORE PUSH1 0x32 PUSH1 0x4 MSTORE PUSH1 0x24 PUSH1 0x0 REVERT JUMPDEST PUSH1 0x0 PUSH2 0x13B5 DUP3 PUSH2 0xAC6 JUMP JUMPDEST SWAP2 POP PUSH2 0x13C0 DUP4 PUSH2 0xAC6 JUMP JUMPDEST SWAP3 POP DUP3 DUP3 ADD SWAP1 POP DUP1 DUP3 GT ISZERO PUSH2 0x13D8 JUMPI PUSH2 0x13D7 PUSH2 0x108C JUMP JUMPDEST JUMPDEST SWAP3 SWAP2 POP POP JUMP JUMPDEST PUSH1 0x0 PUSH2 0x13E9 DUP3 PUSH2 0xAC6 JUMP JUMPDEST SWAP2 POP PUSH32 0xFFFFFFFFFFFFFFFFFFFFFFFFFFFFFFFFFFFFFFFFFFFFFFFFFFFFFFFFFFFFFFFF DUP3 SUB PUSH2 0x141B JUMPI PUSH2 0x141A PUSH2 0x108C JUMP JUMPDEST JUMPDEST PUSH1 0x1 DUP3 ADD SWAP1 POP SWAP2 SWAP1 POP JUMP JUMPDEST PUSH32 0x556E61626C6520746F2064657465726D696E652077696E6E6572000000000000 PUSH1 0x0 DUP3 ADD MSTORE POP JUMP JUMPDEST PUSH1 0x0 PUSH2 0x145C PUSH1 0x1A DUP4 PUSH2 0xF31 JUMP JUMPDEST SWAP2 POP PUSH2 0x1467 DUP3 PUSH2 0x1426 JUMP JUMPDEST PUSH1 0x20 DUP3 ADD SWAP1 POP SWAP2 SWAP1 POP JUMP JUMPDEST PUSH1 0x0 PUSH1 0x20 DUP3 ADD SWAP1 POP DUP2 DUP2 SUB PUSH1 0x0 DUP4 ADD MSTORE PUSH2 0x148B DUP2 PUSH2 0x144F JUMP JUMPDEST SWAP1 POP SWAP2 SWAP1 POP JUMP JUMPDEST PUSH1 0x0 DUP2 MLOAD SWAP1 POP PUSH2 0x14A1 DUP2 PUSH2 0xAD0 JUMP JUMPDEST SWAP3 SWAP2 POP POP JUMP JUMPDEST PUSH1 0x0 PUSH1 0x20 DUP3 DUP5 SUB SLT ISZERO PUSH2 0x14BD JUMPI PUSH2 0x14BC PUSH2 0xABC JUMP JUMPDEST JUMPDEST PUSH1 0x0 PUSH2 0x14CB DUP5 DUP3 DUP6 ADD PUSH2 0x1492 JUMP JUMPDEST SWAP2 POP POP SWAP3 SWAP2 POP POP JUMP JUMPDEST PUSH32 0x496E76616C6964206E756D626572206F66207369646573000000000000000000 PUSH1 0x0 DUP3 ADD MSTORE POP JUMP JUMPDEST PUSH1 0x0 PUSH2 0x150A PUSH1 0x17 DUP4 PUSH2 0xF31 JUMP JUMPDEST SWAP2 POP PUSH2 0x1515 DUP3 PUSH2 0x14D4 JUMP JUMPDEST PUSH1 0x20 DUP3 ADD SWAP1 POP SWAP2 SWAP1 POP JUMP JUMPDEST PUSH1 0x0 PUSH1 0x20 DUP3 ADD SWAP1 POP DUP2 DUP2 SUB PUSH1 0x0 DUP4 ADD MSTORE PUSH2 0x1539 DUP2 PUSH2 0x14FD JUMP JUMPDEST SWAP1 POP SWAP2 SWAP1 POP JUMP JUMPDEST PUSH32 0x496E76616C696420706172616D65746572730000000000000000000000000000 PUSH1 0x0 DUP3 ADD MSTORE POP JUMP JUMPDEST PUSH1 0x0 PUSH2 0x1576 PUSH1 0x12 DUP4 PUSH2 0xF31 JUMP JUMPDEST SWAP2 POP PUSH2 0x1581 DUP3 PUSH2 0x1540 JUMP JUMPDEST PUSH1 0x20 DUP3 ADD SWAP1 POP SWAP2 SWAP1 POP JUMP JUMPDEST PUSH1 0x0 PUSH1 0x20 DUP3 ADD SWAP1 POP DUP2 DUP2 SUB PUSH1 0x0 DUP4 ADD MSTORE PUSH2 0x15A5 DUP2 PUSH2 0x1569 JUMP JUMPDEST SWAP1 POP SWAP2 SWAP1 POP JUMP JUMPDEST PUSH1 0x0 PUSH2 0x15B7 DUP3 PUSH2 0xAC6 JUMP JUMPDEST SWAP2 POP PUSH1 0x0 DUP3 SUB PUSH2 0x15CA JUMPI PUSH2 0x15C9 PUSH2 0x108C JUMP JUMPDEST JUMPDEST PUSH1 0x1 DUP3 SUB SWAP1 POP SWAP2 SWAP1 POP JUMP JUMPDEST PUSH32 0x496E76616C69642072616E676500000000000000000000000000000000000000 PUSH1 0x0 DUP3 ADD MSTORE POP JUMP JUMPDEST PUSH1 0x0 PUSH2 0x160B PUSH1 0xD DUP4 PUSH2 0xF31 JUMP JUMPDEST SWAP2 POP PUSH2 0x1616 DUP3 PUSH2 0x15D5 JUMP JUMPDEST PUSH1 0x20 DUP3 ADD SWAP1 POP SWAP2 SWAP1 POP JUMP JUMPDEST PUSH1 0x0 PUSH1 0x20 DUP3 ADD SWAP1 POP DUP2 DUP2 SUB PUSH1 0x0 DUP4 ADD MSTORE PUSH2 0x163A DUP2 PUSH2 0x15FE JUMP JUMPDEST SWAP1 POP SWAP2 SWAP1 POP JUMP JUMPDEST PUSH1 0x0 PUSH2 0x164C DUP3 PUSH2 0xAC6 JUMP JUMPDEST SWAP2 POP PUSH2 0x1657 DUP4 PUSH2 0xAC6 JUMP JUMPDEST SWAP3 POP DUP3 PUSH2 0x1667 JUMPI PUSH2 0x1666 PUSH2 0x1131 JUMP JUMPDEST JUMPDEST DUP3 DUP3 MOD SWAP1 POP SWAP3 SWAP2 POP POP JUMP JUMPDEST PUSH1 0x0 DUP2 ISZERO ISZERO SWAP1 POP SWAP2 SWAP1 POP JUMP JUMPDEST PUSH2 0x1687 DUP2 PUSH2 0x1672 JUMP JUMPDEST DUP2 EQ PUSH2 0x1692 JUMPI PUSH1 0x0 DUP1 REVERT JUMPDEST POP JUMP JUMPDEST PUSH1 0x0 DUP2 MLOAD SWAP1 POP PUSH2 0x16A4 DUP2 PUSH2 0x167E JUMP JUMPDEST SWAP3 SWAP2 POP POP JUMP JUMPDEST PUSH1 0x0 PUSH2 0x16BD PUSH2 0x16B8 DUP5 PUSH2 0xC0A JUMP JUMPDEST PUSH2 0xBEF JUMP JUMPDEST SWAP1 POP DUP1 DUP4 DUP3 MSTORE PUSH1 0x20 DUP3 ADD SWAP1 POP PUSH1 0x20 DUP5 MUL DUP4 ADD DUP6 DUP2 GT ISZERO PUSH2 0x16E0 JUMPI PUSH2 0x16DF PUSH2 0xC36 JUMP JUMPDEST JUMPDEST DUP4 JUMPDEST DUP2 DUP2 LT ISZERO PUSH2 0x1709 JUMPI DUP1 PUSH2 0x16F5 DUP9 DUP3 PUSH2 0x1492 JUMP JUMPDEST DUP5 MSTORE PUSH1 0x20 DUP5 ADD SWAP4 POP POP PUSH1 0x20 DUP2 ADD SWAP1 POP PUSH2 0x16E2 JUMP JUMPDEST POP POP POP SWAP4 SWAP3 POP POP POP JUMP JUMPDEST PUSH1 0x0 DUP3 PUSH1 0x1F DUP4 ADD SLT PUSH2 0x1728 JUMPI PUSH2 0x1727 PUSH2 0xB79 JUMP JUMPDEST JUMPDEST DUP2 MLOAD PUSH2 0x1738 DUP5 DUP3 PUSH1 0x20 DUP7 ADD PUSH2 0x16AA JUMP JUMPDEST SWAP2 POP POP SWAP3 SWAP2 POP POP JUMP JUMPDEST PUSH1 0x0 DUP1 PUSH1 0x40 DUP4 DUP6 SUB SLT ISZERO PUSH2 0x1758 JUMPI PUSH2 0x1757 PUSH2 0xABC JUMP JUMPDEST JUMPDEST PUSH1 0x0 PUSH2 0x1766 DUP6 DUP3 DUP7 ADD PUSH2 0x1695 JUMP JUMPDEST SWAP3 POP POP PUSH1 0x20 DUP4 ADD MLOAD PUSH8 0xFFFFFFFFFFFFFFFF DUP2 GT ISZERO PUSH2 0x1787 JUMPI PUSH2 0x1786 PUSH2 0xAC1 JUMP JUMPDEST JUMPDEST PUSH2 0x1793 DUP6 DUP3 DUP7 ADD PUSH2 0x1713 JUMP JUMPDEST SWAP2 POP POP SWAP3 POP SWAP3 SWAP1 POP JUMP JUMPDEST PUSH32 0x52616E646F6D20776F7264732072657175657374206E6F74207965742066756C PUSH1 0x0 DUP3 ADD MSTORE PUSH32 0x66696C6C65640000000000000000000000000000000000000000000000000000 PUSH1 0x20 DUP3 ADD MSTORE POP JUMP JUMPDEST PUSH1 0x0 PUSH2 0x17F9 PUSH1 0x26 DUP4 PUSH2 0xF31 JUMP JUMPDEST SWAP2 POP PUSH2 0x1804 DUP3 PUSH2 0x179D JUMP JUMPDEST PUSH1 0x40 DUP3 ADD SWAP1 POP SWAP2 SWAP1 POP JUMP JUMPDEST PUSH1 0x0 PUSH1 0x20 DUP3 ADD SWAP1 POP DUP2 DUP2 SUB PUSH1 0x0 DUP4 ADD MSTORE PUSH2 0x1828 DUP2 PUSH2 0x17EC JUMP JUMPDEST SWAP1 POP SWAP2 SWAP1 POP JUMP JUMPDEST PUSH32 0x4E6F2072616E646F6D20776F72647320617661696C61626C6500000000000000 PUSH1 0x0 DUP3 ADD MSTORE POP JUMP JUMPDEST PUSH1 0x0 PUSH2 0x1865 PUSH1 0x19 DUP4 PUSH2 0xF31 JUMP JUMPDEST SWAP2 POP PUSH2 0x1870 DUP3 PUSH2 0x182F JUMP JUMPDEST PUSH1 0x20 DUP3 ADD SWAP1 POP SWAP2 SWAP1 POP JUMP JUMPDEST PUSH1 0x0 PUSH1 0x20 DUP3 ADD SWAP1 POP DUP2 DUP2 SUB PUSH1 0x0 DUP4 ADD MSTORE PUSH2 0x1894 DUP2 PUSH2 0x1858 JUMP JUMPDEST SWAP1 POP SWAP2 SWAP1 POP JUMP JUMPDEST PUSH32 0x44656E6F6D696E61746F722063616E6E6F74206265207A65726F000000000000 PUSH1 0x0 DUP3 ADD MSTORE POP JUMP JUMPDEST PUSH1 0x0 PUSH2 0x18D1 PUSH1 0x1A DUP4 PUSH2 0xF31 JUMP JUMPDEST SWAP2 POP PUSH2 0x18DC DUP3 PUSH2 0x189B JUMP JUMPDEST PUSH1 0x20 DUP3 ADD SWAP1 POP SWAP2 SWAP1 POP JUMP JUMPDEST PUSH1 0x0 PUSH1 0x20 DUP3 ADD SWAP1 POP DUP2 DUP2 SUB PUSH1 0x0 DUP4 ADD MSTORE PUSH2 0x1900 DUP2 PUSH2 0x18C4 JUMP JUMPDEST SWAP1 POP SWAP2 SWAP1 POP JUMP INVALID LOG2 PUSH5 0x6970667358 0x22 SLT KECCAK256 0x4E DUP1 PC DIV 0xB0 0x2C 0xF 0x2E DUP11 0xD2 0xBC BLOCKHASH EXTCODECOPY 0x5F 0xE7 SWAP14 JUMPI PUSH5 0x254FE44A2E GASPRICE 0xAD 0xAC 0xB4 PC PUSH22 0x69378C64736F6C634300081300330000000000000000 "
		},
		"gasEstimates": {
			"creation": {
				"codeDepositCost": "1292200",
				"executionCost": "infinite",
				"totalCost": "infinite"
			},
			"external": {
				"calculateBinomialProbability(uint256,uint256,uint256)": "infinite",
				"calculateProbability(uint256,uint256)": "infinite",
				"determineWinner(uint256[],uint256[])": "infinite",
				"fetchRandomWord(uint256)": "infinite",
				"generateRandomNumber(uint256,uint256)": "infinite",
				"getLastRequestId()": "infinite",
				"requestRandomWords()": "infinite",
				"simulateCardDraw(uint256,uint256)": "infinite",
				"simulateCoinFlip()": "infinite",
				"simulateDiceRoll(uint256)": "infinite",
				"simulateRouletteSpin()": "infinite",
				"subscriptionConsumer()": "infinite"
			},
			"internal": {
				"factorial(uint256)": "infinite",
				"handleError(string memory)": "infinite",
				"recoverFunds(address,uint256)": "infinite"
			}
		},
		"methodIdentifiers": {
			"calculateBinomialProbability(uint256,uint256,uint256)": "0469c206",
			"calculateProbability(uint256,uint256)": "bc29ced9",
			"determineWinner(uint256[],uint256[])": "199c32e2",
			"fetchRandomWord(uint256)": "79c6e5bb",
			"generateRandomNumber(uint256,uint256)": "609526c2",
			"getLastRequestId()": "19c2b4c3",
			"requestRandomWords()": "e0c86289",
			"simulateCardDraw(uint256,uint256)": "46ae43ed",
			"simulateCoinFlip()": "3add009e",
			"simulateDiceRoll(uint256)": "2b1a6ff4",
			"simulateRouletteSpin()": "89aea509",
			"subscriptionConsumer()": "79d12923"
		}
	},
	"abi": [
		{
			"inputs": [
				{
					"internalType": "address",
					"name": "_subscriptionConsumerAddress",
					"type": "address"
				}
			],
			"stateMutability": "nonpayable",
			"type": "constructor"
		},
		{
			"inputs": [
				{
					"internalType": "uint256",
					"name": "n",
					"type": "uint256"
				},
				{
					"internalType": "uint256",
					"name": "k",
					"type": "uint256"
				},
				{
					"internalType": "uint256",
					"name": "p",
					"type": "uint256"
				}
			],
			"name": "calculateBinomialProbability",
			"outputs": [
				{
					"internalType": "uint256",
					"name": "",
					"type": "uint256"
				}
			],
			"stateMutability": "pure",
			"type": "function"
		},
		{
			"inputs": [
				{
					"internalType": "uint256",
					"name": "numerator",
					"type": "uint256"
				},
				{
					"internalType": "uint256",
					"name": "denominator",
					"type": "uint256"
				}
			],
			"name": "calculateProbability",
			"outputs": [
				{
					"internalType": "uint256",
					"name": "",
					"type": "uint256"
				}
			],
			"stateMutability": "pure",
			"type": "function"
		},
		{
			"inputs": [
				{
					"internalType": "uint256[]",
					"name": "outcomes",
					"type": "uint256[]"
				},
				{
					"internalType": "uint256[]",
					"name": "probabilities",
					"type": "uint256[]"
				}
			],
			"name": "determineWinner",
			"outputs": [
				{
					"internalType": "uint256",
					"name": "",
					"type": "uint256"
				}
			],
			"stateMutability": "view",
			"type": "function"
		},
		{
			"inputs": [
				{
					"internalType": "uint256",
					"name": "requestId",
					"type": "uint256"
				}
			],
			"name": "fetchRandomWord",
			"outputs": [
				{
					"internalType": "uint256",
					"name": "",
					"type": "uint256"
				}
			],
			"stateMutability": "view",
			"type": "function"
		},
		{
			"inputs": [
				{
					"internalType": "uint256",
					"name": "min",
					"type": "uint256"
				},
				{
					"internalType": "uint256",
					"name": "max",
					"type": "uint256"
				}
			],
			"name": "generateRandomNumber",
			"outputs": [
				{
					"internalType": "uint256",
					"name": "",
					"type": "uint256"
				}
			],
			"stateMutability": "view",
			"type": "function"
		},
		{
			"inputs": [],
			"name": "getLastRequestId",
			"outputs": [
				{
					"internalType": "uint256",
					"name": "",
					"type": "uint256"
				}
			],
			"stateMutability": "view",
			"type": "function"
		},
		{
			"inputs": [],
			"name": "requestRandomWords",
			"outputs": [
				{
					"internalType": "uint256",
					"name": "",
					"type": "uint256"
				}
			],
			"stateMutability": "nonpayable",
			"type": "function"
		},
		{
			"inputs": [
				{
					"internalType": "uint256",
					"name": "totalCards",
					"type": "uint256"
				},
				{
					"internalType": "uint256",
					"name": "cardsToDraw",
					"type": "uint256"
				}
			],
			"name": "simulateCardDraw",
			"outputs": [
				{
					"internalType": "uint256[]",
					"name": "",
					"type": "uint256[]"
				}
			],
			"stateMutability": "view",
			"type": "function"
		},
		{
			"inputs": [],
			"name": "simulateCoinFlip",
			"outputs": [
				{
					"internalType": "uint256",
					"name": "",
					"type": "uint256"
				}
			],
			"stateMutability": "view",
			"type": "function"
		},
		{
			"inputs": [
				{
					"internalType": "uint256",
					"name": "sides",
					"type": "uint256"
				}
			],
			"name": "simulateDiceRoll",
			"outputs": [
				{
					"internalType": "uint256",
					"name": "",
					"type": "uint256"
				}
			],
			"stateMutability": "view",
			"type": "function"
		},
		{
			"inputs": [],
			"name": "simulateRouletteSpin",
			"outputs": [
				{
					"internalType": "uint256",
					"name": "",
					"type": "uint256"
				}
			],
			"stateMutability": "view",
			"type": "function"
		},
		{
			"inputs": [],
			"name": "subscriptionConsumer",
			"outputs": [
				{
					"internalType": "contract SubscriptionConsumer",
					"name": "",
					"type": "address"
				}
			],
			"stateMutability": "view",
			"type": "function"
		}
	]
}